02315   0400030427842000012  517900000994   00003511111D511111115612            C010201404           215275800                201405140     301       140301508000101                                   20140401KD0000000001   20140401 0  0                                                                    0.00                                                                            00400                          bpnb                
02315   0400030427842000012  517900000994   00003511119D511119115612            C010201404                3104                201405140     301       140301508000101                                   20140401KD0000000001   20140401 0  0                                                                    0.00                                                                            00400                          bpnb                
02315   0400030427842000012  517900000994   00003511121D511121115612            C010201404            17543810                201405140     301       140301508000101                                   20140401KD0000000001   20140401 0  0                                                                    0.00                                                                            00400                          bpnb                
02315   0400030427842000012  517900000994   00003511122D511122115612            C010201404             4889074                201405140     301       140301508000101                                   20140401KD0000000001   20140401 0  0                                                                    0.00                                                                            00400                          bpnb                
02315   0400030427842000012  517900000994   00003511123D511123115612            C010201404              540000                201405140     301       140301508000101                                   20140401KD0000000001   20140401 0  0                                                                    0.00                                                                            00400                          bpnb                
02315   0400030427842000012  517900000994   00003511124D511124115612            C010201404           105550000                201405140     301       140301508000101                                   20140401KD0000000001   20140401 0  0                                                                    0.00                                                                            00400                          bpnb                
02315   0400030427842000012  517900000994   00003511125D511125115612            C010201404            12715287                201405140     301       140301508000101                                   20140401KD0000000001   20140401 0  0                                                                    0.00                                                                            00400                          bpnb                
02315   0400030427842000012  517900000994   00003511126D511126115612            C010201404            13672960                201405140     301       140301508000101                                   20140401KD0000000001   20140401 0  0                                                                    0.00                                                                            00400                          bpnb                
02315   0400030427842000012  517900000994   00003511129D511129115612            C010201404            24171000                201405140     301       140301303000940                                   20140414KD0000000001   20140414 0  0                                                                    0.00                                                                            00400                          bpnb                
02315   0400030427842000012  517900000994   00003511151D511151115612            C010201404             6400000                201405140     301       140301508000101                                   20140401KD0000000001   20140401 0  0                                                                    0.00                                                                            00400                          bpnb                
02315   0400030427842000012  517900000994   00003512211D512211115612            C010201404             4902000                201405140     301       140301303000389                                   20140401KD0000000001   20140401 0  0                                                                    0.00                                                                            00400                          bpnb                
02315   0400030427842000012  517900000994   00003521111D521111115612            C010201404            13800000                201405140     301       140301303000941                                   20140414KD0000000001   20140414 0  0                                                                    0.00                                                                            00400                          bpnb                
02315   0400030427842000012  517900000994   00003521111D521111115612            C010201404            16250740                201405140     301       140301701000192                                   20140408KD0000000001   20140408 0  0                                                                    0.00                                                                            00400                          bpnb                
02315   0400030427842000012  517900000994   00003521115D521115115612            C010201404            11480000                201405140     301       140301701000192                                   20140408KD0000000001   20140408 0  0                                                                    0.00                                                                            00400                          bpnb                
02315   0400030427842000012  517900000994   00003521115D521115115612            C010201404            11480000                201405140     301       140301303000941                                   20140414KD0000000001   20140414 0  0                                                                    0.00                                                                            00400                          bpnb                
02315   0400030427842000012  517900000001   00003521211D521211115612            C010201404              144000                201405140     301       140301701000191                                   20140408KD0000000001   20140408 0  0                                                                    0.00                                                                            00400                          bpnb                
02315   0400030427842000012  517900000001   00003521213D521213115612            C010201404            14000000                201405140     301       140301701000191                                   20140408KD0000000001   20140408 0  0                                                                    0.00                                                                            00400                          bpnb                
02315   0400030427842000012  517900000994   00003521213D521213115612            C010201404              750000                201405140     301       140301303000941                                   20140414KD0000000001   20140414 0  0                                                                    0.00                                                                            00400                          bpnb                
02315   0400030427842000012  517900000001   00003521213D521213115612            C010201404            11200000                201405140     301       140301303001101                                   20140415KD0000000001   20140415 0  0                                                                    0.00                                                                            00400                          bpnb                
02315   0400030427842000012  517900000994   00003522111D522111115612            C010201404             5123526                201405140     301       140301303000941                                   20140414KD0000000001   20140414 0  0                                                                    0.00                                                                            00400                          bpnb                
02315   0400030427842000012  517900000994   00003522112D522112115612            C010201404              624421                201405140     301       140301303000941                                   20140414KD0000000001   20140414 0  0                                                                    0.00                                                                            00400                          bpnb                
02315   0400030427842000012  517900000002   00003522191D522191115612            C010201404            51931000                201405140     301       140301303000910                                   20140411KD0000000001   20140411 0  0                                                                    0.00                                                                            00400                          bpnb                
02315   0400030427842000012  517900000994   00003523111D523111115612            C010201404              265000                201405140     301       140301701000192                                   20140408KD0000000001   20140408 0  0                                                                    0.00                                                                            00400                          bpnb                
02315   0400030427842000012  517900000994   00003523111D523111115612            C010201404            87350000                201405140     301       140301303001806                                   20140429KD0000000001   20140429 0  0                                                                    0.00                                                                            00400                          bpnb                
02315   0400030427842000012  517900000994   00003523121D523121115612            C010201404              506100                201405140     301       140301303000941                                   20140414KD0000000001   20140414 0  0                                                                    0.00                                                                            00400                          bpnb                
02315   0400030427842000012  517900000994   00003524111D524111115612            C010201404            10412300                201405140     301       140301303000941                                   20140414KD0000000001   20140414 0  0                                                                    0.00                                                                            00400                          bpnb                
02315   0400030427842000012  517900000994   00003524113D524113115612            C010201404             1210000                201405140     301       140301303000941                                   20140414KD0000000001   20140414 0  0                                                                    0.00                                                                            00400                          bpnb                
02315   0400030427842000012  517900000001   00003524119D524119115612            C010201404           196662200                201405140     301       140301701000191                                   20140408KD0000000001   20140408 0  0                                                                    0.00                                                                            00400                          bpnb                
02315   0400030427842000012  517900000001   00003524119D524119115612            C010201404            40290000                201405140     301       140301303001101                                   20140415KD0000000001   20140415 0  0                                                                    0.00                                                                            00400                          bpnb                
02315   0400030427842000012  517900000998   00003533111D533111115612133211321211C010201404            74597500                201405140     301       140301303001482                                   20140423KD0000000001   20140423 0  0                                                                    0.00                                                                            00400                          bpnb                
02315   0400030427842000012  517900000998   00003533115D533115115612133211321211C010201404             4068100                201405140     301       140301302003446                                   20140430KD0000000001   20140430 0  0                                                                    0.00                                                                            00400                          bpnb                
02315   0400030427842000000  00000000000    00003825111D111611219511            C010201404           689425000                201405140     301       140301303001767                                   20140429KD0000000001   20140429 0  0                                                                    0.00                                                                            00400                          bpnb                
02315   0400030427842000012  517900000001   00003815111K111611219511            C010201404          -210806200                201405140     302       140301701000191                                   20140408KD0000000001   20140408 0  0                                                                    0.00                                                                            00400                          bpnb                
02315   0400030427842000012  517900000994   00003815111K111611219511            C010201404           -27995740                201405140     302       140301701000192                                   20140408KD0000000001   20140408 0  0                                                                    0.00                                                                            00400                          bpnb                
02315   0400030427842000000  00000000000    00000      D111821219611            J   201404             1353200                201405140     402       201404427842000                                   20140430KD             20140430 0  0                                                                    0.00                                                                            00400                          bpnb                
02315   0400030427842000000  00000000000    00000      D133111321211            N   201404             7500000                201405140     406                                                         20140430KD             20140430 0  0                                                                    0.00                                                      100                   00400                          bpnb                
02315   0400030427842000000  00000000000    00000      K133111321211            N   201404          -112450100                201405140     406                                                         20140430KD             20140430 0  0                                                                    0.00                                                      304                   00400                          bpnb                
02315   0400030427842000000  00000000000    00000      K133111321211            N   201404            -7500000                201405140     406                                                         20140430KD             20140430 0  0                                                                    0.00                                                      204                   00400                          bpnb                
02315   0400030427842000000  00000000000    00000      D133111321211            N   201404           112450100                201405140     406                                                         20140430KD             20140430 0  0                                                                    0.00                                                      107                   00400                          bpnb                
02315   0400030427842000000  00000000000    00000      D133111321211            N   201404            78665600                201405140     406                                                         20140430KD             20140430 0  0                                                                    0.00                                                      202                   00400                          bpnb                
02315   0400030427842000000  00000000000    00000      K133211321211            N   201404           -78665600                201405140     406                                                         20140430KD             20140430 0  0                                                                    0.00                                                      202                   00400                          bpnb                
02315   0400030427842000000  00000000000    00000      D137211321211            N   201404            43555539                201405140     406                                                         20140430KD             20140430 0  0                                                                    0.00                                                      555                   00400                          bpnb                
02315   0400030427842000012  000000000994   00003811132D                        F010201404            19016675                20140514002315302       140301508000101                                   20140401KD0000000001   20140401 0  0                                                                    0.00                                                                            00400                          bpnb                
02315   0400030427842000012  000000000994   00003811911D                        F010201404              509000                20140514002315302       140301508000101                                   20140401KD0000000001   20140401 0  0                                                                    0.00                                                                            00400                          bpnb                
02315   0400030427842000012  000000000994   00003811131D                        F010201404             4754173                20140514002315302       140301508000101                                   20140401KD0000000001   20140401 0  0                                                                    0.00                                                                            00400                          bpnb                
